:100000000C9411010C9439010C9439010C943901B0
:100010000C9439010C9439010C9439010C94390178
:100020000C9439010C9439010C9484230C942022F3
:100030000C9439010C9439010C9439010C94390158
:100040000C9439010C94400D0C9439010C94390135
:100050000C9439010C9439010C9439010C945025FD
:100060000C9439010C94B21B0C94E41B0C943901D0
:100070000C9439010C9439010C9439010C94390118
:100080000C947A1F0C9439010C9439010C943901A9
:100090000C94BD110C9439010C9439010C94390164
:1000A0000C9439010C944A170C9439018105AA0566
:1000B0007805B705CD05F605EA05F605F405F6055C
:1000C000F005F2051306920564186A187418821870
:1000D00084188A189418A218B418B618BE26C32615
:1000E000C826D226DC26262726272627E626F0261F
:1000F000FA26042711272627192747274A273927B1
:100100003D2743276B276B276B274E275227562700
:100110005C2760276B276627080B0002020201009C
:10012000090400000102020000052400100105245A
:1001300001010104240206052406000107058103CC
:1001400010004009040100020A0000000705020235
:10015000400000070583024000000312010002EF87
:100160000201408D0E01AB0001010203014D6564E7
:10017000696154656B204C616273004C696E6B4918
:100180007420536D61727420373638382044756F8F
:100190000004030904000104050607080A0B0C0DFE
:1001A000090000000200090F0000030401000C0018
:1001B0000004080201104080401020408040800868
:1001C00004020101021020408010801020404004F1
:1001D00004040404030405020202020403020202EE
:1001E00002060606060606040402020204000000D7
:1001F000002300260029002C002F0000000000250D
:100200000028002B002E00310000000000240027F1
:10021000002A002D003000001807BB104A16631A90
:10022000141C11241FBECFEFDAE0DEBFCDBF13E0F8
:10023000A0E0B1E0EEEDF7E502C005900D92A0332D
:10024000B107D9F726E0A0E3B3E001C01D92AA3FB1
:10025000B207E1F711E0C1E1D1E004C02197FE014E
:100260000E941F29CC30D107C9F70E943B250C946E
:10027000ED2B0C9400001F93CF93DF938E31C0F4CD
:10028000172FD62FC82F682F83E195E00E942E15D7
:10029000813071F44D2F512F6C2F83E195E00E9436
:1002A00049156D2F8C2FDF91CF911F910C94A827AA
:1002B000DF91CF911F9108950F931F93CF938E31AC
:1002C00098F58B01C82F682F83E195E00E942E15C9
:1002D000833099F0843041F5EC2FF0E0E15AFC4F87
:1002E000808190E09C01220F331F820F931FB80181
:1002F00083589C4F0E94E50E0EC0C33041F08BEF37
:100300008C0F823020F087EF8C0F853020F4B801FD
:100310008C2F0E949726A8016C2F83E195E0CF9146
:100320001F910F910C944915CF911F910F91089532
:100330008F929F92AF92BF92CF92DF92EF92FF92F5
:100340000F931F93CF93DF93843008F0A6C0982FAC
:10035000990F990F990F28E0E22EE90E9EE19E1564
:1003600010F49EE1E92E8B01C82FCC0FCC0FCC0FDF
:10037000DC2FF12C992493945B01BB24DE1558F5F6
:100380006D2F83E195E00E942E15813039F06D2F9D
:1003900083E195E00E942E1581111AC0C92CD12C41
:1003A000CA20DB2088248394C114D10409F4812C51
:1003B0006D2F83E195E00E942E15813009F056C023
:1003C000F928482D50E06D2F83E195E00E944915F2
:1003D000990CDF5FD3CFF0FE05C0602F61708C2FCA
:1003E0000E94A827F1FE06C0602F627081E08C0F8A
:1003F0000E94A827F2FE06C0602F647082E08C0F76
:100400000E94A827F3FE06C0602F687083E08C0F5F
:100410000E94A827F4FE06C0602F607184E08C0F54
:100420000E94A827F5FE06C0602F607285E08C0F41
:100430000E94A827F6FE06C0602F607486E08C0F2D
:100440000E94A827F7FE29C0602F607887E08C0FF4
:10045000DF91CF911F910F91FF90EF90DF90CF90A0
:10046000BF90AF909F908F900C94A8276D2F83E141
:1004700095E00E942E158111A4CFCD2809F4A1CFBB
:100480006D2F83E195E00E943F15019709F499CF04
:1004900062E08D2F0E946C2794CFDF91CF911F9146
:1004A0000F91FF90EF90DF90CF90BF90AF909F9013
:1004B0008F900895CF938C3090F540912704509100
:1004C000280421E030E0672B81F4B90102C0660FF7
:1004D000771F8A95E2F7CB01809590958423952329
:1004E00090932804809327041AC0082E02C0220F7C
:1004F000331F0A94E2F7242B352B309328042093E2
:1005000027049091A10391110AC0C82F0E9466266A
:10051000AC016C2F83E195E0CF910C946614CF91E0
:100520000895DB01909151039C30A0F53091520366
:10053000682F70E0332369F0E32FF0E0EE5AFC4FB0
:100540008081FB01E15AFC4F80833150309352038C
:1005500007C0FB01E15AFC4F90839F5F90935103CA
:10056000FB01E15AFC4F808190E09C01220F331F78
:10057000820F931F1A161B064CF41416150634F43A
:100580009A01AD0183589C4F0C941D0E83589C4FCB
:100590000C949D0E6FE171E083E195E00C94E21400
:1005A000CF93DF93C82FD0E0C15ADC4F888190E011
:1005B0009C01220F331F820F931F83589C4F0E9470
:1005C000A30E888190915103891306C0882379F086
:1005D0008150809351030BC0992349F0E09152035D
:1005E000EF5FE0935203F0E0EE5AFC4F80838FEF11
:1005F0008883DF91CF9108951F93CF93DF93C82F06
:10060000D0E0FE01E55EFB4F9081162F1923C15EFD
:10061000DB4F411103C09881191741F0682F412F1A
:1006200050E083E195E00E947F141883DF91CF9121
:100630001F9108950F931F93CF93DF93843008F099
:1006400071C0282F30E0F901ED5DFB4F6083672B0F
:1006500009F468C0082FF901E55EFB4F1081D22F25
:10066000DD0FDD0FDD0F10FF4DC08D2F0E94D7274E
:10067000892B09F447C0C1E011FF07C081E08D0F4D
:100680000E94D727892B09F03FC012FF06C082E0E5
:100690008D0F0E94D727892BC9F513FF06C083E071
:1006A0008D0F0E94D727892B99F514FF06C084E08F
:1006B0008D0F0E94D727892B69F515FF06C085E0AD
:1006C0008D0F0E94D727892B39F5D83191F016FF6D
:1006D00006C086E08D0F0E94D727892BF9F4D73109
:1006E00041F017FF06C087E08D0F0E94D727892BA6
:1006F000B9F441E06C2F802FDF91CF911F910F91C2
:100700000C94FC02C0E0B8CFC260BFCFC460C5CFBC
:10071000C860CBCFC061D1CFC062D7CFC064DFCFBC
:10072000C068E7CFDF91CF911F910F910895CF93CC
:10073000DF9380912304882309F448C0D0911B04DF
:10074000D0FF1DC180E00E94D727892B09F417C173
:10075000C1E0D1FF06C081E00E94D727892B09F0B4
:1007600010C1D2FF06C082E00E94D727892B09F072
:100770000AC1D3FF06C083E00E94D727892B09F066
:1007800004C1D4FF06C084E00E94D727892B09F05A
:10079000FEC0D5FF06C085E00E94D727892B09F04F
:1007A000F8C0D6FF06C086E00E94D727892B09F043
:1007B000F2C0D7FF06C087E00E94D727892B09F037
:1007C000ECC040E06C2F80E00E94FC028091240489
:1007D000882309F448C0D0911C04D0FFE0C088E011
:1007E0000E94D727892B09F4DAC0C1E0D1FF06C0E7
:1007F00089E00E94D727892B09F0D3C0D2FF06C019
:100800008AE00E94D727892B09F0CDC0D3FF06C00C
:100810008BE00E94D727892B09F0C7C0D4FF06C000
:100820008CE00E94D727892B09F0C1C0D5FF06C0F4
:100830008DE00E94D727892B09F0BBC0D6FF06C0E8
:100840008EE00E94D727892B09F0B5C0D7FF06C0DC
:100850008FE00E94D727892B09F0AFC040E06C2FB2
:1008600081E00E94FC0280912504882309F448C09D
:10087000D0911D04D0FFA3C080E10E94D727892B0F
:1008800009F49DC0C1E0D1FF06C081E10E94D727D5
:10089000892B09F096C0D2FF06C082E10E94D727BB
:1008A000892B09F090C0D3FF06C083E10E94D727AF
:1008B000892B09F08AC0D4FF06C084E10E94D727A3
:1008C000892B09F084C0D5FF06C085E10E94D72797
:1008D000892B09F07EC0D6FF06C086E10E94D7278B
:1008E000892B09F078C0D7FF06C087E10E94D7277F
:1008F000892B09F072C040E06C2F82E00E94FC025C
:1009000080912604882309F476C0D0911E04D0FF7C
:1009100066C088E10E94D727892B09F460C0C1E036
:10092000D1FF06C089E10E94D727892B09F059C061
:10093000D2FF06C08AE10E94D727892B09F053C055
:10094000D3FF06C08BE10E94D727892B09F04DC049
:10095000D4FF06C08CE10E94D727892B09F047C03D
:10096000D5FF06C08DE10E94D727892B09F041C031
:1009700040E06C2F83E0DF91CF910C94FC02C0E04B
:10098000E8CEC260EECEC460F4CEC860FACEC061DC
:1009900000CFC06206CFC0640CCFC06812CFC0E0E9
:1009A00025CFC2602BCFC46031CFC86037CFC061C4
:1009B0003DCFC06243CFC06449CFC0684FCFC0E0D5
:1009C00062CFC26068CFC4606ECFC86074CFC061B0
:1009D0007ACFC06280CFC06486CFC0688CCFC0E0C1
:1009E0009FCFC260A5CFC460ABCFC860B1CFC0619C
:1009F000B7CFC062BDCFDF91CF9108951092A4030D
:100A00008FEF8093070108950F931F93CF93DF9388
:100A1000C82F8B01682F83E195E00E942E158F3738
:100A200009F401C16C2F83E195E00E942E158630F8
:100A300051F48091A403882331F00630110509F4A4
:100A4000EEC00E94FE04CE31B0F40430110599F0DE
:100A5000EC2FF0E0E15AFC4F80818C3060F490E0A4
:100A60009C01220F331F820F931F83589C4F0E94BB
:100A7000410F8111C5C0DEEEDC0FDC3058F461E0BF
:100A800070E00230110511F060E070E08D2F0E94DF
:100A90005A0202C0CE31E0F4AC2FA695A695A695D9
:100AA0002C2F2770B0E0A55EBB4F81E090E001C025
:100AB000880F2A95EAF70115110519F00D30110577
:100AC00019F49C91892B03C080959C9189238C9368
:100AD00040E050E06C2F83E195E00E9449150E3014
:100AE000110508F083C0F801EA5AFF4F0C941F2942
:100AF000DC3008F098C060E08C2F0E946C2742E048
:100B000008C0CE3108F08FC060E08C2F0E946C27A7
:100B100040E06C2F83E195E0DF91CF911F910F9121
:100B20000C943515CE3108F07EC062E08C2F0E9407
:100B30006C274DE06C2F83E195E00E94351541E074
:100B400050E06C2F83E195E0DF91CF911F910F91E1
:100B50000C944915CE3108F066C060E08C2F0E94DD
:100B6000A82761E08C2F0E946C2741E0D2CFC330D0
:100B700049F08BEF8C0F823028F087EF8C0F853097
:100B800008F051C061E08C2F0E946C2760E070E09B
:100B90008C2F0E94972643E0BCCFCE3108F043C093
:100BA00044E06C2F83E195E00E943515EC2FF0E0D6
:100BB000E15AFC4F80818F3F39F190E09C01220F78
:100BC000331F820F931F83589C4F0E94410F811146
:100BD0002AC01AC08EEF8C0F823028F546E099CFDC
:100BE0004AE097CF4BE095CF48E093CF63E371E0C5
:100BF00083E195E0DF91CF911F910F910C94E21466
:100C00008C2F0E94D00237CF4FEF5FEF6FEF7FEF57
:100C10008C2FDF91CF911F910F910C949102CE31C7
:100C200008F416CF28CFDF91CF911F910F9108952F
:100C3000CF93C0E08EEF8C0F823028F466E070E036
:100C40008C2F0E940405CF5FCE31A1F781E0809305
:100C5000A4038FE494E0CF910C9422100F931F9380
:100C6000CF93DF9381E08093A1038091A40381114E
:100C70000E94FE04E3E2F4E0CBE1D4E0AFE1B4E0B3
:100C8000119219921D9284E0E732F807C9F70FE537
:100C900013E0C0E0DFEF8EEE8C0F8C3030F462E0BA
:100CA00070E08C2F0E94040503C08C2F0E94651FEA
:100CB000F801D1938F01CF5FCE3169F710924C03C9
:100CC00010924B03A5E4B3E0E7E3F3E08FE78D93E5
:100CD00020813181232B11F011821082329693E012
:100CE000E334F907A1F71092280410922704109218
:100CF000520310925103109231031092300310925C
:100D0000A103DF91CF911F910F91089525E042E05B
:100D100064E471E083E195E00E94A3134CE551E0A7
:100D200060EE83E195E00E94F81448E951E060E943
:100D300083E195E00E94F8144AE552E060EC83E11B
:100D400095E00E94F8144AE153E060ED83E195E0FC
:100D50000E94F81444E055E064EF83E195E00E94BE
:100D6000F8144BE351E065EF83E195E00E94F8143D
:100D70004DE957E060EF83E195E00E9428154EE2CF
:100D800056E06FEF83E195E00E94201583E195E046
:100D90000E94481326E040E051EE60E070E08EE1F2
:100DA00096E00E94521B6EE176E083E195E00E949E
:100DB00097130C942E060F931F93CF93DF93CDB709
:100DC000DEB7C654D1090FB6F894DEBF0FBECDBF53
:100DD0008C012AE0CE018F5B9F4F0E94DE2420E031
:100DE00030E040E450E0BE016F5F7F4FCE018F5B8B
:100DF0009F4F0E940B25B80183E195E00E94E21409
:100E0000BE016F5F7F4F83E195E00E94E214CE0147
:100E10008F5B9F4F0E945924CA5BDF4F0FB6F89437
:100E2000DEBF0FBECDBFDF91CF911F910F9108950F
:100E3000CF93DF93CDE7D3E0CE010E94010E23963E
:100E400083E0C13AD807C1F7DF91CF910895682FA9
:100E50008FE494E00C94E30F8FE494E00E945C0F25
:100E60000895EF92FF920F931F93CF93DF93D82FA4
:100E70008B01C42FF22E6F3F7F4FB1F06D2F8FE4A7
:100E800094E00E943410802F0E9427076F2D8FE47A
:100E900094E00E943E108091A2039091A3030097DA
:100EA00029F00E94072602C000E010E04C2F6D2FB1
:100EB0008FE494E00E94B510EC2EF12C8FE494E0C6
:100EC0000E94540FE816F9061CF464E871E009C0AA
:100ED0008FE494E00E94540F8E159F0534F461EA6C
:100EE00071E083E195E00E94E214D093A5030093A2
:100EF000A60305EA13E0C801855A93408E159F05A5
:100F00006CF48FE494E00E94540F0F5F1F4F892B05
:100F100029F00E942C07F8018183EDCF42E04C0FAD
:100F200025EA33E067E783E195E0DF91CF911F91F8
:100F30000F91FF90EF900C94B0146F927F928F926C
:100F40009F92AF92BF92CF92DF92EF92FF920F9358
:100F50001F93CF93DF93162FEA018D3609F446C213
:100F6000E8F4823609F4EEC238F4803509F477C12A
:100F70008F3509F4ACC223C4893609F490C28B368C
:100F800009F01DC460EF83E195E00E94EE146CE669
:100F900083E195E00E94EE14C0E0F0C1823709F4CD
:100FA0001BC338F48F3609F491C1803709F414C19A
:100FB00006C4883709F4EEC08A3709F467C186375A
:100FC00009F0FDC32981922F987125FF03C06DEBB5
:100FD00071E0DFC3888126FB222720F931E0232737
:100FE0009830B1F148F49111EAC3682F8FE494E08E
:100FF0000E94341002E007C0903109F450C09831CB
:1010000009F47BC0DCC3011768F4FE01E00FF11D99
:1010100081818795882787959081890F0E9427076E
:101020000E5FF1CF8FE494E00E94B81086E490E068
:10103000DF91CF911F910F91FF90EF90DF90CF90B4
:10104000BF90AF909F908F907F906F900C940726E9
:101050004B816A81163069F470E030E8439F600D7F
:10106000711D11244D814795442747959C81490F57
:1010700006C0479544274795460F6FEF7FEFDF91F6
:10108000CF911F910F91FF90EF90DF90CF90BF9085
:10109000AF909F908F907F906F900C943107E0916C
:1010A0000701E7301CF06DED71E073C39B813A815D
:1010B000663071F4632F70E040E8949F600D711DFD
:1010C00011249D819795992797954C81940F06C07F
:1010D000979599279795930F6FEF7FEFEF5FE093C9
:1010E000070135E0E302F0011124EB51FC4F80834E
:1010F000728361839383248362C320910701121654
:101100003CF490E0622F022E000C770B35E00FC00C
:101110008FEF8093070153C3349FF001359FF00D8B
:101120001124EB51FC4F4081841739F09F5F492F08
:1011300050E06417750784F790E085E022C098308E
:10114000F8F4FA0131968E9FD0018F9FB00D1124D3
:10115000AB51BC4F3C91849FF001859FF00D112451
:10116000EB51FC4F308311964D915C911297528355
:10117000418313963C911397338314963C913483A7
:101180009F5F492F50E064177507CCF621502093DC
:10119000070115C32981888190E040E8249F800DD4
:1011A000911D1124009721F09093A3038093A20333
:1011B0008091A403811103C3DF91CF911F910F91FF
:1011C000FF90EF90DF90CF90BF90AF909F908F9067
:1011D0007F906F900C941806653008F4F0C2D880A8
:1011E0008DE18D1508F4EBC219810A81EB80FC803A
:1011F000ED2DF0E0E15AFC4F80818C3060F490E0FE
:101200009C01220F331F820F931F83589C4F0E9413
:10121000410F8111D0C24E2D50E090E8F99E400D53
:10122000511D1124612F70E0E0E80E9F600D711DCB
:1012300011248D2D0E94910264E070E08D2DDF91CC
:10124000CF911F910F91FF90EF90DF90CF90BF90C3
:10125000AF909F908F907F906F900C9404052981A0
:10126000888190E030E8239F800D911D1124909398
:101270000E0480930D040E949A2560930F047093CE
:101280001004809311049093120499C2623008F400
:1012900096C22981888190E040E8249F800D911DAD
:1012A0001124009711F481E090E09093090180935C
:1012B0000801609108017091090188E290E00E94A4
:1012C000B6287093500360934F0379C2623008F4DC
:1012D00076C2698170E0123091F08A81E0E88E9FD9
:1012E000C0011124682B792B133049F08B8190E0D9
:1012F00090E4899F902D88271124682B792B888171
:10130000DF91CF911F910F91FF90EF90DF90CF90E1
:10131000BF90AF909F908F907F906F900C945C01E6
:10132000C33009F058C063E083E195E00E94EE14F9
:1013300068E083E195E00E94EE1464E083E195E0CB
:101340000E94EE146EE083E195E00E94EE148EEFB1
:101350008C0F823050F466E083E195E00E94EE1439
:1013600061E083E195E00E94EE146FE783E195E090
:101370000E94EE14CF5FCE3109F4F3C160E083E147
:1013800095E00E94EE1461E083E195E00E94EE1486
:101390006DE083E195E00E94EE1461E083E195E069
:1013A0000E94EE1461E083E195E00E94EE1461E09A
:1013B00083E195E00E94EE148EEE8C0F8C3008F0E5
:1013C000AFCF62E083E195E00E94EE146AE083E132
:1013D00095E00E94EE148BEF8C0F823008F4A3CFBF
:1013E00087EF8C0F853008F0A8CF9DCF662309F4D6
:1013F000E6C1C88160EF83E195E00E94EE146EE6DD
:1014000083E195E00E94EE146C2F83E195E00E9449
:10141000EE14CE3108F0A5C16C2F83E195E00E9457
:101420002E15682F83E195E00E94EE146C2F83E166
:1014300095E00E943F15682F6F7783E195E00E9449
:10144000EE146C2F83E195E00E943F158078892B84
:1014500079F06C2F83E195E00E943F15880F892F6A
:10146000881F990B682F6F7783E195E00E94EE1437
:101470006C2F83E195E00E943F158827907C892B93
:1014800009F46FC16C2F83E195E00E943F15990F1D
:10149000880B990F982F881F682F6F775EC160EFB8
:1014A00083E195E00E94EE146AE683E195E00E94F4
:1014B000EE14CEEECC3010F46C2F01C06FE783E158
:1014C00095E00E94EE14CF5FCC30A1F74AC198811D
:1014D0008981911124C09D812C8130E040E8949F46
:1014E000200D311D1124032E000C440B550B9B8144
:1014F0006A8170E0E0E89E9F600D711D1124DF910C
:10150000CF911F910F91FF90EF90DF90CF90BF9000
:10151000AF909F908F907F906F900C946B1C913048
:1015200009F04DC1DF91CF911F910F91FF90EF9086
:10153000DF90CF90BF90AF909F908F907F906F90F3
:101540000C94651F20914B0330914C0326303105DC
:101550000CF03FC0888180933603998190933503C6
:101560009A81913208F491E2909306019C81CB819B
:10157000D0E040E8949FC00DD11D1124F901EB5B30
:10158000FC4F80836BE070E00E9404056BE070E02C
:10159000809135030E94040582E190E00E944E256F
:1015A0008C019E0140913503609136030E94D11653
:1015B00080914B0390914C03FC01EE0FFF1FE95CFF
:1015C000FC4F11830083019690934C0380934B034F
:1015D000F6C06EEE71E0DDC0888181114FC08A8156
:1015E0008980912C90E8899F800C911C11248B811B
:1015F000682E712CCC80D12C653079F48AE190E092
:101600000E944E258C019601A301B4010E9471171E
:101610001093310300933003D2C0673099F40D81E9
:1016200010E0EE80F12C8AE190E00E944E255C01F2
:101630009601A301B4010E949717B0923103A092C2
:101640003003BDC06BE272E083E195E00E94E214DA
:10165000412F50E060E070E08BE592E0DF91CF91A8
:101660001F910F91FF90EF90DF90CF90BF90AF90C0
:101670009F908F907F906F900C94DB06813009F0E3
:101680004CC04A8150E060E070E097E0440F551F85
:10169000661F771F9A95D1F78B8190E0A0E0B0E0AC
:1016A0002EE0880F991FAA1FBB1F2A95D1F7482B40
:1016B000592B6A2B7B2B8981482B8D819C81292F6B
:1016C00030E07901E0E88E9FE00CF11C11241E81CE
:1016D00080913003909131030097E1F00E94CD1783
:1016E000111103C0F194E194F108B7018091300326
:1016F00090913103DF91CF911F910F91FF90EF9067
:10170000DF90CF90BF90AF909F908F907F906F9021
:101710000C94D31863E672E03CC08230C1F580912E
:10172000300390913103009779F10E945B19EC012D
:1017300060EF83E195E00E94EE1462E783E195E0BB
:101740000E94EE146C2F6F7783E195E00E94EE14F7
:10175000BE01660F672F661F770B83E195E00E943D
:10176000EE1467EF83E195E0DF91CF911F910F9128
:10177000FF90EF90DF90CF90BF90AF909F908F90B1
:101780007F906F900C94EE146FE872E002C064ECEE
:1017900072E083E195E0DF91CF911F910F91FF906F
:1017A000EF90DF90CF90BF90AF909F908F907F9001
:1017B0006F900C94E2148D2D0E94D0022CCDDF91FD
:1017C000CF911F910F91FF90EF90DF90CF90BF903E
:1017D000AF909F908F907F906F900895CF92DF92FF
:1017E000EF92FF920F931F93CF930E94970383E191
:1017F00095E00E940014892B29F083E195E00E9476
:101800003116F5CF0E949A2560931704709318043F
:101810008093190490931A04C0901304D090140478
:10182000E0901504F0901604209108013091090110
:10183000890120E030E0AB01BC014C195D096E0963
:101840007F09041715072607370708F011C1D701CC
:10185000C601800F911FA21FB31F809313049093A2
:101860001404A0931504B093160480914D03909135
:101870004E039C012F5F3F4F30934E0320934D0347
:1018800020914F0330915003281739070CF066C0A0
:1018900010924E0310924D0380914B0390914C0394
:1018A000892B09F45BC0E0914303F0914403EE0FF0
:1018B000FF1FE95CFC4F60E070E0808191810E9435
:1018C000131769E370E00E94B628CB0140914303EF
:1018D00050914403409334039A012F5F3F4F30935C
:1018E00044032093430320914B0330914C03215038
:1018F00031094217530724F0109244031092430316
:101900006F7760933203880F892F881F990B80931C
:10191000330360EF83E195E00E94EE1463E683E118
:1019200095E00E94EE14E0913403F0E0EB5BFC4F95
:10193000608183E195E00E94EE146091320383E1BF
:1019400095E00E94EE146091330383E195E00E94DC
:10195000EE1467EF83E195E00E94EE14CEEE62E1B3
:101960006C0FCC30D8F483E195E00E942E158230C4
:10197000A9F480912704909128040C2E02C095951B
:1019800087950A94E2F780FF09C08C2F0E94662693
:10199000AC016C2F83E195E00E946614CF5FCC30E0
:1019A000F1F68091070187FD1CC0C0E015E02C2FE7
:1019B00030E080910701082E000C990B82179307E5
:1019C00084F0129FF001139FF00D1124EB51FC4F96
:1019D000618172812481438180810E943107CF5FC0
:1019E000E6CF80910D0490910E04892B09F440C03C
:1019F0000E949A2560931704709318048093190429
:101A000090931A0400910F04109110042091110476
:101A100030911204DC01CB01801B910BA20BB30BA4
:101A200040910D0450910E0428EE33E0429F800156
:101A3000439F100D529F100D112420E030E0081735
:101A400019072A073B07A0F40E942E0640E050E049
:101A5000BA0182EF92E00E94DB0698E088E10FB6BF
:101A6000F894A895809360000FBE90936000FFCF1C
:101A7000CF911F910F91FF90EF90DF90CF9008953D
:101A80001F920F920FB60F9211242F933F934F93F3
:101A90005F936F937F938F939F93AF93BF93EF93D6
:101AA000FF9380912A0487FF05C010928500109251
:101AB00084001BC020912A04022E000C330B80915D
:101AC000290490E02817390784F480912A04082E0D
:101AD000000C990BFC01EE0FFF1F8E0F9F1FFC01E6
:101AE000E55DFB4F808186FD15C080912A048F5FE4
:101AF00080932A0420912A04022E000C330B80913B
:101B0000290490E028173907C4F480912A048C3006
:101B100064F113C080912A04082E000C990BFC017B
:101B2000EE0FFF1F8E0F9F1FFC01E55DFB4F8081B5
:101B300060E08F730E94A827D8CF80918400909195
:101B40008500049680329E4418F480E29EE405C02D
:101B500080918400909185000496909389008093F1
:101B600088008FEF80932A043BC02091840030913D
:101B7000850080912A04082E000C990BFC01EE0FC1
:101B8000FF1F8E0F9F1FFC01E55DFB4F818192813E
:101B9000820F931F909389008093880080912A047C
:101BA000082E000C990BFC01EE0FFF1F8E0F9F1FDC
:101BB000FC01E55DFB4F808186FF12C080912A0405
:101BC000082E000C990BFC01EE0FFF1F8E0F9F1FBC
:101BD000FC01E55DFB4F808161E08F730E94A827C7
:101BE000FF91EF91BF91AF919F918F917F916F91F5
:101BF0005F914F913F912F910F900FBE0F901F90CB
:101C00001895FC01909129049C30A0F481E0890F83
:101C1000809329049083892F90E0FC01EE0FFF1F31
:101C20008E0F9F1FFC01E55DFB4F8CED95E09283CD
:101C3000818308958FEF80830895DF92EF92FF9262
:101C40000F931F93CF93DF93EC01D62E7A01890176
:101C500088818C3008F068C061E08D2D0E946C276F
:101C60008881E82FF0E09F01220F331FE20FF31F5E
:101C7000E55DFB4F9D2D9F732081207CD22ED92ABC
:101C8000D08220E232E02E193F0937FF02C02D5FDB
:101C90003F4F3595279535952795298320E639E0DF
:101CA000201B310B37FF02C02D5F3F4F3595279525
:101CB000359527952A836CE00E94AA289CE0899F8D
:101CC000B001112440E050E09B01240F351FF901C1
:101CD000EE0FFF1F2E0F3F1FF901E55DFB4F9081B7
:101CE00096FD16C04F5F5F4F4C30510569F781116B
:101CF0000FC01092800082E08093810010928500D6
:101D000010928400B19A80916F00826080936F007E
:101D1000E881F0E0CF01880F991FE80FF91FE55D1A
:101D2000FB4F8081806480838881DF91CF911F91F8
:101D30000F91FF90EF90DF90089520E639E040E2A8
:101D400052E00C941D0EDC01EC91F0E0CF01880F05
:101D5000991FE80FF91FE55DFB4F80818F7B808322
:101D60000895FC0190819C3078F5818128E830E06D
:101D7000281B310987FD3395220F331F220F331F94
:101D80006217730784F0828148E552E0481B5109CD
:101D900087FD5395440F551F440F551F9B01461750
:101DA00057070CF49A014FB7F894892F90E022500E
:101DB0003109FC01EE0FFF1F8E0F9F1FFC01E55D37
:101DC000FB4F328321834FBF0895AF92BF92CF92D2
:101DD000DF92EF92FF920F931F93CF93DF93EC016B
:101DE000603282E078070CF03FC077FD06C0653BAB
:101DF00071052CF064EB70E002C060E070E0898156
:101E000028E830E05901A81AB10887FDB394AA0C5C
:101E1000BB1CAA0CBB1C0B2C000CCC08DD08072E2D
:101E2000000C880B990B2A8108E512E0021B1109AE
:101E300027FD1395000F111F000F111F012E000C1D
:101E4000220B330B3F932F931F930F9314EBE12E31
:101E5000F12C00E010E020E030E0A9010E941824FD
:101E60000F900F900F900F90CE01DF91CF911F91A7
:101E70000F91FF90EF90DF90CF90BF90AF900C94B8
:101E8000B10EFC01808190E0FC01EE0FFF1F8E0F70
:101E90009F1FFC01E55DFB4F808186FB882780F951
:101EA000089580E090E008958091830490E020916F
:101EB0008404821B91090895909184048091830485
:101EC000981750F4E92FF0E0EB57FB4F208130E0FA
:101ED0009F5F9093840402C02FEF3FEFC9010895E4
:101EE000E091840480918304E81730F4F0E0EB572C
:101EF000FB4F808190E008958FEF9FEF0895089544
:101F0000CF93DF93EC01E0915B04F0915C04309798
:101F1000F1F090918404809183049817C0F090E0D0
:101F2000292F30E02617370754F4DE01A20FB31F24
:101F30004C91D901AB57BB4F4C939F5FF1CF10929F
:101F4000840460938304CB01DF91CF910994DF91E6
:101F5000CF910895E0915D04F0915E04309729F0EF
:101F6000109261041092600409940895CF92DF9258
:101F7000EF92FF920F931F93CF93DF937C01CB01DE
:101F80008A0120915F04222389F0EB016B01C40ECA
:101F9000D51ECC15DD0569F06991D701ED91FC9155
:101FA0000190F081E02DC7010995F3CF642F0E94C5
:101FB0007B11C801DF91CF911F910F91FF90EF909E
:101FC000DF90CF900895CF93DF931F92CDB7DEB708
:101FD000698320915F042223D1F020916004203294
:101FE00040F021E030E0FC013383228380E090E088
:101FF00015C080916104E82FF0E0EE59FB4F998104
:1020000090838F5F809361048093600405C061E0DA
:10201000CE0101960E947B1181E090E00F90DF914C
:10202000CF910895FC011382128288EE93E0A0E024
:10203000B0E084839583A683B78388EF92E0918391
:102040008083089510928404109283041092610496
:10205000109260040E94BF108AEA9FE00E94A811BB
:1020600080E89FE00C94A31181E080935F0460936B
:102070008204109261041092600408950F93062F59
:1020800021E04091600462E674E0809182040E9445
:102090002511109261041092600410925F040F9158
:1020A00008954F925F926F927F92AF92BF92CF92BC
:1020B000EF92FF920F931F93CF93DF935C01F62E65
:1020C000D42F28013901EE2021F10E943410CE2DA9
:1020D000C43008F0C3E0C150C0F028E0C29FC00186
:1020E0001124A301920104C0569547953795279571
:1020F0008A95D2F7CA01B901D501ED91FC91019001
:10210000F081E02DC5010995E6CF60E0C5010E9490
:102110003E104D2FD13208F040E22C2D65E874E0DE
:102120008F2D0E94DD101092840480938304DF9130
:10213000CF911F910F91FF90EF90CF90BF90AF90F4
:102140007F906F905F904F900895CF92EF920F9392
:102150001F93C22EE12C00E010E098010E94511064
:102160001F910F91EF90CF90089521E00C94A5104E
:1021700061E00C943E108FE494E00C9412101092E5
:10218000120581E08093100510920F0561E082E056
:102190000E94A82761E083E00E94A827E9EBF0E015
:1021A00080818E7F808380818D7F808380E2809399
:1021B000B80085E48093BC000895413208F043C024
:1021C000909112059111FCCF91E09093120520930C
:1021D00010052FEF2093A5041092EA04240F2093FA
:1021E000E9049093110590911105880F892B809334
:1021F000110580910F05813061F410920F058091D7
:1022000011058093BB008091BC0083FDF8CF85EC65
:1022100001C085EE8093BC00809112058130E1F30E
:102220008091EA04841710F44091EA04ABEEB4E024
:10223000962FFB018E2F891B841718F48D918193A3
:10224000F9CF842F089580E008950F93413208F06C
:102250004AC0909112059111FCCF32E030931205E3
:10226000009310053FEF3093A5041092EA044093C9
:10227000E904562FABEEB4E0FB013E2F351B3417BB
:1022800018F431913D93F9CF109211053091110559
:10229000880F832B8093110580910F05813061F4A5
:1022A00010920F05809111058093BB008091BC00B6
:1022B00083FDF8CF85EC01C085EE8093BC0022231E
:1022C00021F0809112058230D1F38091A5048F3FD7
:1022D00079F08091A504803241F08091A50480338B
:1022E00031F094E005C091E003C092E001C093E0BA
:1022F000892F0F9108954091C704262F30E0240FB5
:10230000311D21323105DCF4209112052430C9F44D
:10231000FC0180E090E0861758F43091C7042191C9
:10232000DC01A753BB4FA30FB11D2C930196F3CF34
:102330008091C704680F6093C70480E0089581E02E
:10234000089582E0089590930C0580930B050895FD
:1023500090930E0580930D05089585ED8093BC0044
:102360008091BC0084FDFCCF10921205089585EC8D
:102370008093BC001092120508951F920F920FB621
:102380000F9211242F933F934F935F936F937F93FB
:102390008F939F93AF93BF93EF93FF938091B90077
:1023A000887F803609F49EC078F5883209F45DC0D4
:1023B00090F4803109F456C038F4882309F4F5C04C
:1023C000883009F44FC0F5C0883109F44EC080321E
:1023D00009F45FC0EEC0803409F46AC058F4803359
:1023E00009F457C0883309F0E4C08093A5040E9423
:1023F000B711DFC0803509F44FC0883509F45DC0DE
:10240000883409F0D6C0D3C0883909F4C4C0A8F410
:10241000883709F467C038F4883609F463C0803718
:1024200009F460C0C6C0883809F4B5C0803909F421
:102430005FC0803809F0BDC05BC0803B09F483C039
:1024400038F4803A09F466C0883A09F47CC0B1C017
:10245000803C09F4A4C0883C09F4A1C0883B09F47D
:1024600087C0A7C08091110510C09091EA048091A7
:10247000E904981770F5E091EA0481E08E0F8093EB
:10248000EA04F0E0E551FB4F80818093BB0085ECCE
:1024900083C08093A5048BC0E091EA0481E08E0F95
:1024A0008093EA048091BB00F0E0E551FB4F80830C
:1024B0009091EA048091E9046BC0E091EA0481E024
:1024C0008E0F8093EA048091BB00F0E0E551FB4F52
:1024D00080838091100581116AC081E080930F058F
:1024E00084EA5EC083E0809312051092A604CFCFE9
:1024F0008091A604803208F04EC0E091A60481E0ED
:102500008E0F8093A6048091BB00F0E0E955FB4F4D
:102510008083BDCF0E94B7118091A604803230F431
:10252000E091A604F0E0E955FB4F10826091A6040B
:1025300070E0E0910B05F0910C0587EA94E00995B5
:102540001092A60436C084E0809312051092C8044D
:102550001092C704E0910D05F0910E050995809148
:10256000C704811105C081E08093C7041092C9049B
:10257000E091C80481E08E0F8093C804F0E0E75337
:10258000FB4F80818093BB009091C8048091C70469
:10259000981708F47CCF85E88093BC000AC085ECCE
:1025A0008093BC001092120504C01092A5040E94F2
:1025B000AD11FF91EF91BF91AF919F918F917F915D
:1025C0006F915F914F913F912F910F900FBE0F90A0
:1025D0001F9018950F931F93CF93DF938C01EB01FE
:1025E000DC018D919C916F77DC01ED91FC91019064
:1025F000F081E02D0995F80180819181CC0FCD2FDC
:10260000CC1FDD0B6C2F6F77DC01ED91FC910190FD
:10261000F081E02DDF91CF911F910F910994DC01A2
:102620008D919C91DC01ED91FC910190F081E02D68
:1026300060EF0994DC018D919C91DC01ED91FC919E
:102640000190F081E02D67EF0994CF93DF93EC01C7
:1026500088819981DC01ED91FC910190F081E02D60
:1026600069EF099588819981DC01ED91FC910190D8
:10267000F081E02D62E0099588819981DC01ED917E
:10268000FC910190F081E02D65E0DF91CF910994FC
:1026900089549F4F21E0FC01208308951F93CF931D
:1026A000DF93DC0112962C912223E9F1EC010E94C8
:1026B0000F1388819981DC01ED91FC910190F081EB
:1026C000E02D69E7099588819981AB81BC81FC0186
:1026D00020813181F901208131816C91F9010995C5
:1026E00088819981AB81BC81FC0120813181F90114
:1026F0002081318111966C91F901099512E08A814E
:10270000181758F4EB81FC81E10FF11D608170E036
:10271000CE010E94EA121F5FF2CFCE01DF91CF916E
:102720001F910C941A13DF91CF911F910895CF93AD
:10273000DF93EC01798368830E942513CE01DF913A
:10274000CF910C944E13CF92DF92EF92FF920F93A2
:102750001F93CF93DF937C01EB01C42ED22E66E052
:1027600073E0CE010E94502B8C016FE270E0CE012D
:102770000E94452B009739F46CE570E0CE010E9471
:10278000452B009711F0EC0121960115110551F42C
:10279000FE0101900020E9F7EC1BEF5FD7011296D4
:1027A000EC9305C00C1B1D0B0E5FF7010283D701D4
:1027B00013968D919C9114970E94D729F70102815D
:1027C00010E0C80101960E943F29D70114969C93FE
:1027D0008E931397FC01E00FF11F1082FC01C08261
:1027E000D182A80142505109BE010296DF91CF91DA
:1027F0001F910F91FF90EF90DF90CF900C94362BAC
:10280000DC018D919C91DC01ED91FC910084F185BE
:10281000E02D0994CF93DF93FC012085213731F01F
:102820002937E9F5DF91CF910C944E13FC01ED545B
:10283000FF4F0190F081E02D309709F444C0DC0196
:10284000A75BBF4F4D915C919A012150310937FD33
:102850009A0135952795722FEC01DC0150E0229604
:102860001196571770F44F8117964C9317976885F8
:10287000679566276795460F17964C9317975F5F86
:10288000EECFDC01A20FB11D17962C9117972223D2
:1028900011F018961C920896DF91CF910994FC01D3
:1028A000EB54FF4F0190F081E02D309761F0AC01C7
:1028B000475F5F4FDC01A75BBF4F6C916150822F78
:1028C000DF91CF910994DF91CF9108950F931F93DA
:1028D000CF93DF93EC018A01888199816F70606EDC
:1028E000DC01ED91FC910190F081E02D0995B8019A
:1028F000CE01DF91CF911F910F910C94EA120F93AB
:102900001F93CF93DF938C01EA01DC018D919C91A1
:102910006F706069DC01ED91FC910190F081E02D18
:102920000995F801808191816C2F6F77DC01ED9121
:10293000FC910190F081E02D0995F8018081918151
:10294000BE01660F672F661F770BDC01ED91FC91CE
:102950000190F081E02DDF91CF911F910F910994AB
:10296000DF92EF92FF920F931F93CF93DF938C012F
:10297000C62FF42ED22EE32E0E940F13D8018D9174
:102980009C91DC01ED91FC910190F081E02D6C2F88
:102990000995CD2DDE2DFE01EF0DF11D7F01CE1528
:1029A000DF0531F0699170E0C8010E94EA12F7CFAB
:1029B000C801DF91CF911F910F91FF90EF90DF90B1
:1029C0000C941A139B01FB0101900020E9F7319749
:1029D000AF01461B570B61E70C94B014DC018D91DD
:1029E0009C91DC01ED91FC910190F081E02D099426
:1029F000603DC1F028F4603969F0603C79F00895D9
:102A0000643FA1F0653FB1F0603EC9F4FC01EB55B5
:102A1000FF4F13C0FC01E955FF4F0FC0FC01E75504
:102A2000FF4F0BC0FC01E555FF4F07C0FC01E3550C
:102A3000FF4F03C0FC01E155FF4F518340830895D0
:102A40006F3F29F4FC01EF54FF4F518340830895F9
:102A50008B549F4FFC01518340830895860F911D35
:102A6000FC01E55BFF4F80810895860F911DFC01FD
:102A7000E55BFF4F80818F3709F040830895860F13
:102A8000911D860F911DFC01E759FF4F80819181B7
:102A90000895860F911D860F911DFC01E759FF4F88
:102AA000518340830895FC01158216821782DC0150
:102AB0001896885B9F4F1D92A817B907E1F71C92E3
:102AC000DF01A75BBF4F1D921C92EF54FF4F019097
:102AD000F081E02D309709F009940895FC01E95444
:102AE000FF4F1082FC011282148213820C94531542
:102AF000CF93DF93EC01FC01E85BFF4F80818823DB
:102B0000A9F0673F31F41082CE01DF91CF910C9490
:102B10000A14FE01E75BFF4F20813181C20FD31FF2
:102B200068872F5F3F4F3183208398C08D81882332
:102B300009F452C067FD50C081508D83FE01E80F3B
:102B4000F11D608781118AC08E81882309F486C0B7
:102B5000803DA1F140F4803981F0803CD9F5FE013F
:102B6000E755FF4F2EC0843FC9F0853FD9F0803E26
:102B700089F5FE01EB55FF4F03C0FE01E955FF4FFC
:102B80000190F081E02D309729F18885698570E00A
:102B900090E8899F600D711D11241AC0FE01E35554
:102BA000FF4F03C0FE01E155FF4F0190F081E02D82
:102BB000309781F0688570E089850BC0FE01E5558E
:102BC000FF4F0190F081E02D309721F0688570E093
:102BD0008F8109951E8242C0862F603F28F4807F36
:102BE00090E06F706F8301C090E0803F910549F1E4
:102BF0007CF4803C910509F124F480399105D9F0E9
:102C00002DC0803D9105C9F0803E9105A1F026C000
:102C1000893F9105E9F03CF49C01245F31092230A1
:102C2000310548F01BC08F3F9105C1F4CE01DF9103
:102C3000CF910C94531592E001C091E09D838E8357
:102C40000DC081E08083C75BDF4F1982188206C008
:102C500083E195E0DF91CF910C942513DF91CF9123
:102C60000895CF93DF93EC0188819981DC01ED9188
:102C7000FC910284F385E02D09958F3FBFEF9B0700
:102C800031F0682FCE01DF91CF910C947815DF9150
:102C9000CF91089583E195E00C946E150F931F93E7
:102CA000CF93DF93EC01EA85FB8590818C81892BA2
:102CB0008083EE81FF8190818C8180958923808340
:102CC00084E090E00E940726EE81FF8190818C8154
:102CD000892B80838AE090E00E940726EE81FF81A5
:102CE00090818C81809589238083EA85FB85908102
:102CF0008C81809589238083E885F98590818D81F9
:102D0000892311F080E036C00E94A6252C853D85E0
:102D1000890120E030E00855194E2F4F3F4FDC016C
:102D2000CB01800F911FA21FB31F8E879F87A88B97
:102D3000B98BE885F98590818D81892361F40E94A2
:102D4000A6250E851F8528893989061717072807A4
:102D5000390778F7D7CF0E94A6252C853D85DC0161
:102D6000CB01820F931FA11DB11D8E879F87A88B5A
:102D7000B98B81E0DF91CF911F910F9108956F5F23
:102D80007F4F49E3469F9001479F300D11242E3815
:102D90004FE6340710F02DE83FE6FC013587248725
:102DA0000895DC0170E0FB01EF54FE4FE4911496AE
:102DB000EC93149750E0FA01EF54FE4FE49115960E
:102DC000EC93159761537E4FFB018491E82FF0E05F
:102DD000EE0FFF1FE550FE4F8591949117969C933F
:102DE0008E931697FA01E153FE4FE491F0E0EE0F57
:102DF000FF1FE351FE4F8591949119969C938E93FA
:102E00001897FB016491E62FF0E0EE0FFF1FE75FDC
:102E1000FD4F859194911B969C938E931A97B901BF
:102E2000CD010C94BF160F931F93CF93DF93EC014A
:102E30006115710511F00E94BF16CE010E944E1659
:102E400081110EC080E090E020C00E94A6250E8572
:102E50001F8528893989061717072807390790F32E
:102E6000E885F98590818D81892379F70E94A625CF
:102E70002C853D85A901455051092E853F85FA01D4
:102E8000E21BF30BCF01860F971FDF91CF911F91AC
:102E90000F9108951F920F920FB60F9211242F9346
:102EA0003F934F935F936F937F938F939F93AF93D2
:102EB000BF93EF93FF93E091CB05F091CC0509957B
:102EC000FF91EF91BF91AF919F918F917F916F9102
:102ED0005F914F913F912F910F900FBE0F901F90D8
:102EE0001895CF93DF93EC01842F1B861A861982E5
:102EF00018821E8A1F8A188E198E7F836E834C87D4
:102F00005D873F872E8761E00E946C2761E08E8598
:102F10000E946C27198A188A1B8A1A8A1D8A1C8AA1
:102F200082E090E099878887DF91CF910895EF92B2
:102F3000FF920F931F93CF93DF93EC01842F1B8697
:102F40001A86198218821E8A1F8A188E198E7F830C
:102F50006E834C875D873F872E87198B088BFB8A92
:102F6000EA8A61E00E946C2761E08E850E946C27EE
:102F700061E088890E946C2761E08A890E946C2741
:102F80001D8A1C8A84E090E099878887DF91CF9121
:102F90001F910F91FF90EF900895CF92DF92EF92E3
:102FA000FF92CF93DF93EC016A017B012E813F8179
:102FB000032E000C440B550B60E077E883E993E0A7
:102FC0000E940029CA01B901A70196010E940029A7
:102FD0002A833B834C835D83DF91CF91FF90EF90F9
:102FE000DF90CF9008950F931F93CF93DF93EC0161
:102FF0008B01888599850297F1F46130710569F03C
:1030000024F4672BC1F460E009C06230710559F007
:103010006330710581F460E007C061E08C850E9437
:10302000A82761E005C061E08C850E94A82760E0C8
:103030008E850E94A827888599850497B9F5013067
:103040001105B1F04CF40115110581F561E08C8595
:103050000E94A82760E011C002301105B9F00330CA
:10306000110521F561E08C850E94A82760E013C05E
:1030700060E08C850E94A82761E08E850E94A827C9
:1030800061E088890E94A82760E00DC060E08C851F
:103090000E94A82761E08E850E94A82760E08889A9
:1030A0000E94A82761E08A890E94A82788859985BF
:1030B000059709F073C00A30110508F06FC0F801D8
:1030C000EC59FF4F0C941F2960E08C850E94A827C3
:1030D00061E051C060E08C850E94A82761E08E8588
:1030E0000E94A82760E04BC060E08C850E94A82762
:1030F00061E08E850E94A82760E088890E94A82749
:1031000061E041C060E001C061E08C850E94A827B9
:1031100061E005C061E08C850E94A82760E08E8593
:103120000E94A82760E009C061E08C850E94A82762
:1031300060E08E850E94A82761E088890E94A82708
:1031400061E00DC061E08C850E94A82760E08E855B
:103150000E94A82761E088890E94A82760E08A89E8
:103160000E94A82760E013C061E001C060E08C8588
:103170000E94A82760E08E850E94A82761E08889C8
:103180000E94A82760E08A890E94A82761E08C89B4
:10319000DF91CF911F910F910C94A827DF91CF91D0
:1031A0001F910F9108954F925F926F927F928F922D
:1031B0009F92AF92BF92CF92DF92EF92FF920F93C6
:1031C0001F93CF93DF93EC018B0177FF04C000279F
:1031D0001127061B170B161617062CF481E090E03A
:1031E0009983888304C0672B11F01982188284E0C8
:1031F000E82EF12C9AE0C92ED12C0115110509F405
:1032000049C00E94A6258E889F88A88CB98C2B0166
:103210003C01481859086A087B088A809B80AC806A
:10322000BD80481459046A047B0438F36E8B7F8B8D
:10323000888F998F288139818A859B852130310536
:1032400059F401969B878A872E813F8182179307C5
:1032500071F41B861A860BC0892B21F48E819F8105
:103260009B878A878A859B8501979B878A870150E0
:103270001109288539858A859B852530310511F40A
:10328000B60101C0B7010E94CA28BC01CE010E944C
:10329000F317B3CFDF91CF911F910F91FF90EF9074
:1032A000DF90CF90BF90AF909F908F907F906F9066
:1032B0005F904F90089585E090E00895CF93DF935D
:1032C0001F92CDB7DEB76983DC01ED91FC910280DE
:1032D000F381E02D41E050E0BE016F5F7F4F099523
:1032E0000F90DF91CF910895CF93DF93EC018C8500
:1032F0009D8597FF05C082E00E94E5209D878C8711
:103300008C859D85DF91CF91089583E00E94FC20FC
:1033100090E0089583E00C947A23FC0184859585E0
:1033200097FD06C082E00E94902090E001960895EB
:1033300082E00E94902090E00895FC0184859585AC
:1033400097FD05C02FEF3FEF35872487089582E072
:103350000C94E520CF93DF93EC0180911501882335
:1033600031F083E00E9416211816190634F081E02E
:1033700090E09B838A8380E090E0DF91CF91089575
:10338000EEEFFFE72591349181E02B3F3C4D09F0B2
:1033900080E00895FC0190819E5F908342E450E0BC
:1033A00068E171E080E80C94C621FC018181908184
:1033B000913A59F4813209F065C047E050E06EE07F
:1033C00071E080E00E94C6215BC0913209F05AC0D2
:1033D000833269F482819381A0E0B0E080930A0196
:1033E00090930B01A0930C01B0930D0149C0803262
:1033F00039F467E070E08EE091E00E94ED2140C07A
:10340000823209F03DC08281809315010E94C0196B
:10341000882319F0EEEFFAE002C0E0E0F8E08091D6
:103420000E0190910F01A0911001B0911101803B0C
:103430009440A105B10541F58091150180FD24C09E
:10344000EE3F8AE0F80751F080819181873727E7C6
:10345000920721F09093FF0A8093FE0A87E797E78F
:10346000918380838091600080931D069BE088E1BA
:103470000FB6F894A895809360000FBE90936000FB
:1034800081E0089580E00895808191818737974792
:10349000B9F7A89580916000886180936000809161
:1034A0001D0680936000EE3F8AE0F80739F08091B6
:1034B000FE0A9091FF0A91838083E2CF1092FF0A67
:1034C0001092FE0ADDCFEDECF5E01382128288EE59
:1034D00093E0A0E0B0E084839583A683B7838FE078
:1034E00093E0918380838FEF9FEF95878487089582
:1034F000FC01918D228D892F90E0805C9F4F821B73
:1035000091098F7399270895FC01918D828D9817E9
:1035100031F0828DE80FF11D858D90E008958FEFD9
:103520009FEF0895FC01918D828D981761F0828D37
:10353000DF01A80FB11D5D968C91928D9F5F9F73E7
:10354000928F90E008958FEF9FEF0895FC01538DC7
:10355000448D252F30E0842F90E0821B930B54176D
:1035600010F0CF960895019708958AE09CE1892B89
:1035700049F080E090E0892B29F00E940A1C81111B
:103580000C9400000895FC01848DDF01A80FB11D8B
:10359000A35ABF4F2C91848D90E001968F73992789
:1035A000848FA689B7892C93A089B1898C91827464
:1035B0008C93938D848D981306C00288F389E02D37
:1035C00080818F7D80830895EF92FF920F931F93E8
:1035D000CF93DF93EC0181E0888F9B8D8C8D9813C6
:1035E00005C0E889F989808185FD26C0F62E0B8DFE
:1035F00010E00F5F1F4F0F731127E02E8C8DE81224
:103600000CC00FB607FCFACFE889F989808185FFE5
:10361000F5CFCE010E94C31AF1CF8B8DFE01E80FCA
:10362000F11DE35AFF4FF0829FB7F8940B8FEA89A0
:10363000FB898081806209C09FB7F894EE89FF8979
:103640006083E889F9898081827480839FBF81E0EB
:1036500090E0DF91CF911F910F91FF90EF9008952F
:10366000CF93DF93EC01888D8823C9F0EA89FB8929
:10367000808185FD05C0A889B9898C9186FD0FC020
:103680000FB607FCF5CF808185FFF2CFA889B989F5
:103690008C9185FFEDCFCE010E94C31AE7CFDF9159
:1036A000CF910895CF92DF92EF92FF921F93CF9325
:1036B000DF93EC016A017B01122F60E874E88EE170
:1036C00090E0A70196010E94DE28DA01C901019766
:1036D000A109B109B695A795979587959C01E889A9
:1036E000F98982E08083211580E13807A8F0E88914
:1036F000F989108260E472E48FE090E0A7019601FE
:103700000E94DE28DA01C9010197A109B109B69525
:10371000A795979587959C01EC85FD853083EE856F
:10372000FF852083188EEC89FD891083EA89FB8947
:10373000808180618083EA89FB89808188608083C1
:10374000EA89FB89808180688083EA89FB8980819E
:103750008F7D8083DF91CF911F91FF90EF90DF905D
:10376000CF9008951F920F920FB60F9211242F93AE
:103770008F939F93EF93FF93E0912E06F0912F0686
:103780008081E0913406F091350682FD12C090816F
:10379000809137068F5F8F7320913806821751F022
:1037A000E0913706F0E0E25EF94F958F809337069F
:1037B00001C08081FF91EF919F918F912F910F9088
:1037C0000FBE0F901F9018951F920F920FB60F9279
:1037D00011242F933F934F935F936F937F938F9316
:1037E0009F93AF93BF93EF93FF938EE196E00E9478
:1037F000C31AFF91EF91BF91AF919F918F917F91EC
:103800006F915F914F913F912F910F900FBE0F904D
:103810001F9018958EE196E00E94781A21E0892B7E
:1038200009F420E0822F0895EEE1F6E0138212827F
:1038300088EE93E0A0E0B0E084839583A683B7830D
:1038400081E293E0918380838DEC90E0958784877B
:103850008CEC90E09787868788EC90E0918B808B4A
:1038600089EC90E0938B828B8AEC90E0958B848B33
:103870008EEC90E0978B868B118E128E138E148EA9
:103880000895CF92DF92EF92FF920F931F93CF9301
:10389000DF936C017A018B01C0E0D0E0CE15DF052B
:1038A00081F0D8016D918D01D601ED91FC910190CF
:1038B000F081E02DC6010995892B11F02196EECFFC
:1038C0007E01C701DF91CF911F910F91FF90EF9083
:1038D000DF90CF9008954F925F926F927F928F9278
:1038E0009F92AF92BF92CF92DF92EF92FF920F938F
:1038F0001F93CF93DF9300D000D01F92CDB7DEB7D8
:103900008B0129013A0190911601891721F09F3FFF
:1039100009F0A8C205C0EAE5F1E024912D83ACC00E
:1039200080931601EAE5F1E094919D839F3F09F4AD
:1039300099C2913009F44FC068F1933009F472C014
:10394000943009F099C01092C0001092C10090917B
:10395000C10098609093C1009091C10091609093D4
:10396000C100282F30E0F901E153FE4FE491F0E06F
:10397000EE0FFF1FE550FE4F459154915093BD0649
:103980004093BC06F901EF54FE4FE491E093BB066F
:1039900024E070C014BC15BC94B5926094BD95B57C
:1039A000916095BD282F30E0F901E153FE4FE4917D
:1039B000F0E0EE0FFF1FE550FE4F459154915093FC
:1039C000D2064093D106F901EF54FE4FE491E09303
:1039D000D0061D8254C010928000109281009091F8
:1039E0008100986090938100909181009160909304
:1039F0008100282F30E0F901E153FE4FE491F0E01F
:103A0000EE0FFF1FE550FE4F459154915093CB06AA
:103A10004093CA06F901EF54FE4FE491E093C906C2
:103A200021E028C010929000109291009091910096
:103A30009860909391009091910091609093910083
:103A4000282F30E0F901E153FE4FE491F0E0EE0F52
:103A5000FF1FE550FE4F459154915093C40640938B
:103A6000C306F901EF54FE4FE491E093C20693E0E0
:103A70009D8382C02D8380C09D8197FDF3C161E04D
:103A80000E946C278D818D7F09F079C04801A12C9F
:103A9000B12C60E079E08DE390E0A50194010E94F3
:103AA000002929833A834B835C8369017A0121E0F1
:103AB000C21AD108E108F1088FEFC816D104E10459
:103AC000F10409F008F44DC060E271EA87E090E08B
:103AD000A50194010E94002969017A0191E0C91AA7
:103AE000D108E108F1082D81223001F58FEFC816C9
:103AF000D104E104F10409F008F45FC168E478EE50
:103B000081E090E0A50194010E94002969017A01F9
:103B100091E0C91AD108E108F1082FEFC216D104CB
:103B2000E104F10411F008F08EC0E2C08FEFC81676
:103B3000D104E104F104B9F0B0F064E274EF80E084
:103B400090E0A50194010E94002969017A0191E0A9
:103B5000C91AD108E108F1082D81222309F434C1E2
:103B600068C181E001C082E09D819111C1C095B51D
:103B7000987F892B85BDBCC061E00E946C274801FD
:103B8000A12CB12C60E079E08DE390E0A5019401D7
:103B90000E94002969017A0181E0C81AD108E10870
:103BA000F108C114D10491E0E906F10488F064E25F
:103BB00074EF80E090E0A50194010E940029690162
:103BC0007A0181E0C81AD108E108F10883E001C058
:103BD00081E09D81913081F490918100987F892BC3
:103BE00080938100411451046104710409F085C07F
:103BF0002FEF3FEFA901ADC02D81233081F49091CB
:103C00009100987F892B80939100411451046104A5
:103C1000710409F072C02FEF3FEFA901ACC09D8184
:103C2000943009F065C09091C100987F892B8093F2
:103C3000C100411451046104710409F05EC02FEF0A
:103C40003FEFA901AAC064E274EF80E090E0A50113
:103C500094010E94002969017A0181E0C81AD10803
:103C6000E108F1089FEFC916D104E104F10409F05D
:103C700008F4A3C062E17AE780E090E0A501940136
:103C80000E94002969017A0181E0C81AD108E1087F
:103C9000F1089FEFC916D104E104F10449F140F1A4
:103CA00069E07DE380E090E0A50194010E94002995
:103CB00069017A0181E0C81AD108E108F1088FEFA3
:103CC000C816D104E104F10499F090F089819A8139
:103CD000AB81BC812AE0B595A795979587952A95E4
:103CE000D1F76C017D0121E0C21AD108E108F10889
:103CF000411451046104710471F0D801AA0FBB1F73
:103D0000A30192010E94252928EE33E040E050E013
:103D10000E94DE2803C02FEF3FEFA9018D81813083
:103D2000C1F08CF481119EC0C7BC2093D3063093A0
:103D3000D4064093D5065093D60680916E008260DB
:103D400080936E008FC09D819330A9F0943029F14B
:103D500089C0D0928900C09288002093CC0630930D
:103D6000CD064093CE065093CF0680916F008260BF
:103D700080936F0077C0D0929900C09298002093F2
:103D8000C5063093C6064093C7065093C806809177
:103D9000710082608093710065C0C092CF00209353
:103DA000BE063093BF064093C0065093C106809173
:103DB000720080648093720055C041145104610404
:103DC000710409F09ACF4EC08FEFC816D104E104F8
:103DD000F10469F160F169E07DE380E090E0A50124
:103DE00094010E94002969017A0191E0C91AD10861
:103DF000E108F1082FEFC216D104E104F104A9F0A3
:103E0000A0F089819A81AB81BC813AE0B595A795F4
:103E1000979587953A95D1F76C017D0121E0C21AFB
:103E2000D108E108F10885E0A2CE84E0A0CE83E0CD
:103E30009ECE2FEFC216D104E104F10489F080F088
:103E400069E07DE380E090E0A50194010E940029F3
:103E500069017A0191E0C91AD108E108F1082FCF70
:103E600084E082CE0F900F900F900F900F90DF9113
:103E7000CF911F910F91FF90EF90DF90CF90BF9067
:103E8000AF909F908F907F906F905F904F9008952C
:103E9000813049F028F0833061F0843081F008955A
:103EA00010926E00089580916F008D7F80936F0057
:103EB0000895809171008D7F8093710008958091A5
:103EC00072008F7B809372000895CF93C82F8091EA
:103ED0001601C81307C0EAE5F1E084919FEF9093C3
:103EE000160101C08FEF0E94481F60E08C2FCF9118
:103EF0000C94A8271F920F920FB60F9211242F93A4
:103F00003F934F935F936F937F938F939F93AF9361
:103F1000BF93EF93FF938091C5069091C606A09141
:103F2000C706B091C806892B8A2B8B2B51F1909133
:103F3000C206E091C306F091C40680818927808380
:103F40008091C5069091C606A091C706B091C8069B
:103F5000181619061A061B060CF58091C5069091D5
:103F6000C606A091C706B091C8060197A109B1097C
:103F70008093C5069093C606A093C706B093C80663
:103F80000DC083E00E94481F8091C206E091C306E5
:103F9000F091C4069081809589238083FF91EF91F1
:103FA000BF91AF919F918F917F916F915F914F9151
:103FB0003F912F910F900FBE0F901F901895615059
:103FC00030F02091F100FC0120830196F8CF289871
:103FD00084E68093DF0608954091DA065091DB066F
:103FE0002091D8063091D90642175307B4F4909126
:103FF000E8009570E1F39091E80092FD19C080937C
:10400000F1008091DA069091DB0601968F73992773
:10401000892B19F48EEF8093E8008091DA06909155
:10402000DB0601969093DB068093DA0681E0089523
:1040300080E00895DF92EF92FF920F931F93CF934A
:10404000DF93D82EF92EE42E062F10E0C80101963A
:10405000880F0E94EC1F83E00E94EC1FCD2DDF2D06
:104060000C0F1D1FC017D10789F0E7FE03C0FE012A
:10407000849101C088810E94EC1FF82E80E00E948C
:10408000EC1F8F2121968111EDCF01C081E0DF91DE
:10409000CF911F910F91FF90EF90DF900895809145
:1040A000D70081608093D70080EA8093D80089B5DB
:1040B0008F7E89BD89B5826089BD09B400FEFDCFC0
:1040C00061E070E080E090E00E94CB258091D80014
:1040D0008F7C80618093D8008091E000807F809306
:1040E000E0000895CF93DF931F92CDB7DEB719821A
:1040F000CE0101960E94CA190E948528BE016F5FF9
:104100007F4F0E94002889810F90DF91CF91089501
:104110002FB7FC012083F89467706093E90008953D
:10412000CF93DF931F92CDB7DEB7682FCE010196F4
:104130000E9488208091F20099819FBF0F90DF91AB
:10414000CF910895EF92FF920F931F93CF93DF9338
:104150001F92CDB7DEB79091DE06992311F057FF7D
:1041600003C08FEF9FEF29C08A017B01682FCE012A
:1041700001960E9488202091F20030E00217130778
:104180000CF49801822FF70194E6815038F02898BA
:104190009093DF064091F1004193F7CF211531054F
:1041A00021F08091F200882321F089818FBFC9011D
:1041B00004C08BE68093E800F8CF0F90DF91CF9199
:1041C0001F910F91FF90EF900895CF93DF931F926F
:1041D000CDB7DEB741E050E0BE016F5F7F4F0E9478
:1041E000A220019719F4898190E002C08FEF9FEF20
:1041F0000F90DF91CF910895CF93DF931F92CDB7AA
:10420000DEB7682FCE0101960E9488209091E800C9
:10421000892F807295FF04C09091F20080E4891B81
:1042200099819FBF0F90DF91CF9108955F926F9218
:104230007F928F929F92AF92BF92CF92DF92EF9236
:10424000FF920F931F93CF93DF931F92CDB7DEB7EB
:10425000982E6B01B42E052F8091DE06811103C0CC
:104260008FEF9FEF77C08091DC0680FF05C08091C3
:10427000E00082608093E000EB2CF02EA12C8AEF0E
:10428000882E892D8072682E892D8074582E9AE38D
:10429000792EE114F10419F4AA2009F455C0892DEE
:1042A0000E94FC20182F81110AC08A948820C1F234
:1042B00061E070E080E090E00E94CB25EACF90E0E2
:1042C000E816F9060CF41E2D692DCE0101960E9408
:1042D00088208091E80085FF34C0812F90E0E81AA3
:1042E000F90A662029F01150A0F01092F100FBCFDE
:1042F000F60197FE0AC0115050F024912093F1006E
:104300003196F9CF21912093F1001150D8F7C80EC2
:10431000D91EAA2019F07092E8000BC08091E80025
:1043200085FD09C07092E800AA24A394E114F10469
:1043300041F0A12C06C0E114F10419F4511070925F
:10434000E80089818FBFA5CF5D9884E68093E00661
:104350008B2D902F0F90DF91CF911F910F91FF9098
:10436000EF90DF90CF90BF90AF909F908F907F9015
:104370006F905F9008951092E9001092DB06109202
:10438000DA069093D9068093D8060895DF92EF92CB
:10439000FF920F931F93CF93DF93D82E8A017B0157
:1043A000E40EF51EEB01CE15DF0571F0D7FE03C05C
:1043B000FE01849101C088810E94EC1F2196811129
:1043C000F2CF8FEF9FEF01C0C801DF91CF911F9116
:1043D0000F91FF90EF90DF900895AF92BF92DF9220
:1043E000EF92FF920F931F93CF93DF935C018B01AA
:1043F000EB019BEFD92E2097C1F07E01C134D1058E
:104400001CF080E4E82EF12C8091E80082FFFCCFC4
:10441000C8018C1B9D0B6E2D8A0D9B1D0E94DF1FFA
:10442000D092E800CE19DF09E6CFC801DF91CF9125
:104430001F910F91FF90EF90DF90BF90AF90089584
:104440001F920F920FB60F921124CF92DF92EF922C
:10445000FF920F931F932F933F934F935F936F930D
:104460007F938F939F93AF93BF93EF93FF93CF93DC
:10447000DF93CDB7DEB76C97DEBFCDBF1092E900FA
:104480008091E80083FF17C168E0CE0145960E9445
:10449000DF1F82EF8093E8008D8987FF05C0909130
:1044A000E80090FFFCCF03C09EEF9093E800982FA8
:1044B000907609F0D8C09E894F89588D2F89188D24
:1044C00091110CC0803829F48091DD068093F100B1
:1044D00002C01092F1001092F100E6C0913051F448
:1044E0008111E2C04130510509F0DEC08091DD0646
:1044F0008D7F0BC0933061F48111D6C041305105DE
:1045000009F0D2C08091DD0682608093DD06CCC0C8
:10451000953049F48091E80080FFFCCF822F8068BD
:104520008093E300C1C0963009F070C0EB8CFC8C26
:10453000123069F580E090E00E94BB210E94722059
:1045400099E09E012F5F3F4F6901F901292F1192D8
:104550002A95E9F799831A8391E09E8390EA9887D8
:104560009AEF99872091DA063091DB06275F3F4F5B
:104570003C832B838D83C7010E94BB2149E050E01F
:10458000B60180E00E94C6210E9472208DC0C70142
:104590000E94BB210E948528BE016B5E7F4F0E9456
:1045A0002928009719F00CF07FC082C0113009F45F
:1045B00070C0133009F07CC08F89882309F46CC067
:1045C000823029F440E865E18BE791E006C0813054
:1045D00039F440E86DE08DE691E00E941A2056C063
:1045E000833009F065C00E9485288E010F5F1F4F40
:1045F000B8010E944828F80101900020E9F731979E
:10460000BF01601B710B40E0C801E7CF973009F490
:104610004FC0983021F481E08093F10045C099307B
:1046200009F042C0837009F043C0E8E1F1E081E0A5
:1046300031E096E32081211109C08EE78093EA00E2
:104640001092EA008F898093DE062EC08093E900E5
:104650003093EB0021912093EC009093ED008F5F5D
:10466000873041F7EACF8B8D9C8D0E94BB21898DCD
:10467000811105C0CE0145960E94D51907C00E9440
:104680008528BE016B5E7F4F0E946728882381F0DA
:104690000BC06BE571E002C061E971E0FB01449180
:1046A00050E080E80E94C6218EEF8093E80003C0AE
:1046B00081E28093EB006C960FB6F894DEBF0FBEDC
:1046C000CDBFDF91CF91FF91EF91BF91AF919F91BE
:1046D0008F917F916F915F914F913F912F911F919A
:1046E0000F91FF90EF90DF90CF900F900FBE0F9043
:1046F0001F9018958093E9008091F200882319F0AB
:104700008AE38093E80008951F920F920FB60F92EC
:1047100011242F933F934F935F936F937F938F93C6
:104720009F93AF93BF93CF93EF93FF93C091E1001B
:104730008091E100837F8093E100C3FF0FC010925E
:10474000E90081E08093EB001092EC0082E380931B
:10475000ED001092DE0688E08093F000C2FF19C0E1
:1047600083E00E947A238091E006882339F08091CB
:10477000E00681508093E006882389F18091DF066E
:10478000882339F08091DF0681508093DF068823EB
:1047900041F1C4FF10C08091E2008E7E8160809361
:1047A000E2008091E1008F7E8093E1008091DC0641
:1047B0008E7E806111C0C0FF16C08091E2008E7EA7
:1047C00080618093E2008091E1008E7E8093E10021
:1047D0008091DC068E7E81608093DC0604C05D9A49
:1047E000CDCF289AD6CFFF91EF91CF91BF91AF91C6
:1047F0009F918F917F916F915F914F913F912F91F9
:104800000F900FBE0F901F9018951092DE06109219
:10481000DD061092DC060E944F20E1EEF0E0808180
:104820008E7E80838DE08093E200559A209A0895D1
:104830004F925F926F927F92AF92BF92CF92DF9230
:10484000EF92FF920F931F93CF93DF93CDB7DEB715
:1048500029013A019B01AC01241935094609570980
:1048600089899A89AB89BC89BC01CD016A197B0908
:104870008C099D090E949A28A801970124193509DD
:10488000460957090E940029CA01B9016A0D7B1D1A
:104890008C1D9D1DDF91CF911F910F91FF90EF9087
:1048A000DF90CF90BF90AF907F906F905F904F90D0
:1048B0000895FC01808191810C94D729CF93DF93D7
:1048C000EC0188819981009711F00E94D729198203
:1048D00018821D821C821B821A82DF91CF9108955B
:1048E0000F931F93CF93DF93EC018B016F5F7F4F8B
:1048F000888199810E94602A009731F0998388838A
:104900001B830A8381E001C080E0DF91CF911F917A
:104910000F910895CF93DF93EC0188819981892BC2
:1049200029F08A819B818617970760F4CE010E9447
:104930007024882341F08C819D81892B19F4E881B2
:10494000F981108281E0DF91CF910895EF92FF927B
:104950000F931F93CF93DF93EC017B018A01BA0180
:104960000E948A24811104C0CE010E945E2407C0E7
:104970001D830C83B701888199810E942F2BCE0162
:10498000DF91CF911F910F91FF90EF900895CF93FA
:10499000DF93EC016115710559F0FB0101900020D6
:1049A000E9F73197AF01461B570B0E94A62402C0BE
:1049B0000E945E24CE01DF91CF9108950F931F9343
:1049C000CF93DF93CDB7DEB7A2970FB6F894DEBFD3
:1049D0000FBECDBF8C01CB01BA01F801118210824C
:1049E000138212821582148230E0AE014F5F5F4F56
:1049F0000E946A2BBE016F5F7F4FC8010E94C724CF
:104A0000A2960FB6F894DEBF0FBECDBFDF91CF9157
:104A10001F910F9108950F931F93CF93DF9341152B
:104A2000510519F16115710501F1DC011496ED9143
:104A3000FC9115972E173F0718F0FB01108215C047
:104A4000E21BF30BEA012197EC17FD0708F4EF01D5
:104A50008B01FC0160817181620F731FAE01C8017F
:104A60000E94362BC00FD11F1882DF91CF911F916A
:104A70000F91089508950E9410260E943A2587ED0F
:104A800096E00E9405240E948606C5EBDAE10E94AA
:104A9000EE0B2097E1F30E94B51AF9CF0C943F2951
:104AA0001F920F920FB60F9211242F933F938F9363
:104AB0009F93AF93BF938091E2069091E306A091FC
:104AC000E406B091E5063091E10626E0230F2D378C
:104AD00020F40296A11DB11D05C029E8230F0396FD
:104AE000A11DB11D2093E1068093E2069093E30699
:104AF000A093E406B093E5068091E6069091E70660
:104B0000A091E806B091E9060196A11DB11D809320
:104B1000E6069093E706A093E806B093E906BF91F6
:104B2000AF919F918F913F912F910F900FBE0F905A
:104B30001F9018952FB7F8946091E2067091E306E4
:104B40008091E4069091E5062FBF08953FB7F89451
:104B50008091E6069091E706A091E806B091E906FB
:104B600026B5A89B05C02F3F19F00196A11DB11DC8
:104B70003FBFBA2FA92F982F8827820F911DA11D03
:104B8000B11DBC01CD0143E0660F771F881F991F3F
:104B90004A95D1F708958F929F92AF92BF92CF928C
:104BA000DF92EF92FF926B017C010E94A6254B01E0
:104BB0005C01C114D104E104F10401F10E949928BF
:104BC0000E94A625DC01CB0188199909AA09BB0915
:104BD000883E9340A105B10560F321E0C21AD108D7
:104BE000E108F10888EE880E83E0981EA11CB11C34
:104BF000C114D104E104F10419F7DBCFFF90EF9069
:104C0000DF90CF90BF90AF909F908F9008958330AA
:104C1000910528F0880F991F04970197F1F70895DF
:104C2000789484B5826084BD84B5816084BD85B587
:104C3000826085BD85B5816085BDEEE6F0E080814E
:104C400081608083E1E8F0E010828081826080836F
:104C5000808181608083E0E8F0E0808181608083F2
:104C6000E1E9F0E0808182608083808181608083DF
:104C7000E0E9F0E0808181608083E1ECF0E0808118
:104C80008460808380818260808380818160808372
:104C9000E3ECF0E0808181608083E0ECF0E08081F3
:104CA00082608083E2ECF0E0808181608083EAE7CB
:104CB000F0E0808184608083808182608083808155
:104CC0008E7F80838081806880830895823108F0A0
:104CD0008251E82FF0E0EB56FE4FE49180917B008B
:104CE000E3FB222720F930E095E0220F331F9A954D
:104CF000E1F78F7D282B20937B0080911E0120E41B
:104D0000829FC0011124E770E82BE0937C00809122
:104D10007A00806480937A0080917A0086FDFCCFCF
:104D2000809178002091790090E0922B08951F9354
:104D3000CF93DF93182FEB0161E00E946C2720973F
:104D400011F460E004C0CF3FD10539F461E0812F58
:104D5000DF91CF911F910C94A827E12FF0E0EF5540
:104D6000FE4FE4918E2F90E0FC013197EF30F1057A
:104D700008F06CC0E259FF4F0C941F2984B580687D
:104D800084BDC7BD68C084B5806284BDC8BD63C032
:104D900080918000806880938000D0938900C093C8
:104DA000880059C080918000806280938000D093F9
:104DB0008B00C0938A004FC08091800088608093F0
:104DC0008000D0938D00C0938C0045C080919000EE
:104DD000806880939000D0939900C09398003BC066
:104DE00080919000806280939000D0939B00C0934C
:104DF0009A0031C080919000886080939000D09399
:104E00009D00C0939C0027C08091C0008068809363
:104E1000C0008091C0008F7B8093C000C093CF0002
:104E20001AC08091C00080628093C000C093D000FF
:104E300012C08091C20088608093C2008091C2003D
:104E40008B7F8093C200C093D20005C0C038D105CB
:104E50000CF07CCF76CFDF91CF911F91089590E039
:104E6000FC013197EF30F105B0F5E358FF4F0C949A
:104E70001F29809180008F7703C0809180008F7DF3
:104E800080938000089580918000877FF9CF84B55A
:104E90008F7702C084B58F7D84BD08958091900086
:104EA0008F7707C0809190008F7D03C08091900024
:104EB000877F8093900008958091C0008F7703C012
:104EC0008091C0008F7D8093C00008958091C200C2
:104ED000877F8093C2000895CF93DF9390E0FC0119
:104EE000EF54FE4F2491FC01E153FE4F849188233F
:104EF00061F190E0880F991FFC01E75FFD4FC591BC
:104F0000D491FC01E550FE4FA591B491611109C007
:104F10009FB7F8948881209582238883EC912E2373
:104F20000BC0623061F49FB7F8948881322F3095BE
:104F300083238883EC912E2B2C939FBF06C08FB7C1
:104F4000F894E8812E2B28838FBFDF91CF910895AD
:104F50001F93CF93DF93282F30E0F901EF55FE4FD9
:104F60008491F901EF54FE4FD491F901E153FE4FC2
:104F7000C491CC23C1F0162F81110E942F27EC2F52
:104F8000F0E0EE0FFF1FE550FE4FA591B4919FB7E3
:104F9000F894111104C08C91D095D82302C0EC91E3
:104FA000DE2BDC939FBFDF91CF911F910895CF93AC
:104FB000DF93282F30E0F901EF55FE4F8491F9017E
:104FC000EF54FE4FD491F901E153FE4FC491CC232D
:104FD00091F081110E942F27EC2FF0E0EE0FFF1FC0
:104FE000E351FE4FA591B491EC91ED2381E090E067
:104FF00021F480E002C080E090E0DF91CF9108953D
:10500000EF92FF920F931F93CF93DF937B01FC01ED
:10501000C281D38100E010E0209781F0E881F9811E
:105020000280F381E02DB701CE01099597FD08C0FC
:10503000080F191F0884D985C02DEECFC80102C002
:105040008FEF9FEFDF91CF911F910F91FF90EF9026
:1050500008950F931F93CF93DF938B01FC01C281BF
:10506000D381209771F0E881F9810480F581E02DEA
:10507000B801CE010995009731F40884D985C02D77
:10508000F0CF80E090E0DF91CF911F910F910895D4
:105090000F931F93CF93DF938B01FC01C281D381C8
:1050A000209771F0E881F9810680F781E02DB80141
:1050B000CE010995080F111D0884D985C02DF0CFA8
:1050C000F8011082DF91CF911F910F9108950F93F6
:1050D0001F93CF93DF938B01FC01C281D381209773
:1050E00071F0E881F9810190F081E02DB801CE01E5
:1050F0000995811105C00884D985C02DF0CF80E0C5
:10510000DF91CF911F910F9108958091EE0681114B
:105110000DC082E08093EA0684E08093EB06109253
:10512000ED061092EC0681E08093EE068AEE96E0A2
:1051300008950895DB018F939F930E942529BF91C5
:10514000AF91A29F800D911DA39F900DB29F900DD6
:1051500011240895991B79E004C0991F961708F04F
:10516000961B881F7A95C9F780950895AA1BBB1BCB
:1051700051E107C0AA1FBB1FA617B70710F0A61B57
:10518000B70B881F991F5A95A9F780959095BC0178
:10519000CD01089597FB072E16F4009407D077FDF4
:1051A00009D00E94B62807FC05D03EF49095819561
:1051B0009F4F0895709561957F4F0895A1E21A2E33
:1051C000AA1BBB1BFD010DC0AA1FBB1FEE1FFF1FAB
:1051D000A217B307E407F50720F0A21BB30BE40BFB
:1051E000F50B661F771F881F991F1A9469F7609542
:1051F0007095809590959B01AC01BD01CF010895FC
:10520000052E97FB1EF400940E94172957FD07D026
:105210000E94DE2807FC03D04EF40C941729509509
:105220004095309521953F4F4F4F5F4F0895909592
:105230008095709561957F4F8F4F9F4F0895EE0F2A
:10524000FF1F0590F491E02D09940E943029A59F3D
:10525000900DB49F900DA49F800D911D1124089571
:10526000A29FB001B39FC001A39F700D811D1124A7
:10527000911DB29F700D811D1124911D08950F93F2
:105280001F93CF93DF938230910510F482E090E07A
:10529000E091F806F091F90620E030E0A0E0B0E0FF
:1052A000309719F1408151810281138148175907C4
:1052B000C8F08417950769F4109731F012960C9393
:1052C000129713961C9327C00093F8061093F906C3
:1052D00022C02115310519F04217530718F49A011D
:1052E000BD01EF01DF01F801DBCF21153105F9F038
:1052F000281B390B2430310580F48A819B8161158C
:10530000710521F0FB019383828304C09093F90619
:105310008093F806FE01329644C0FE01E20FF31FAF
:105320008193919322503109398328833AC0209187
:10533000F6063091F706232B41F4209102013091BB
:1053400003013093F7062093F60620910001309177
:1053500001012115310541F42DB73EB740910401FB
:1053600050910501241B350BE091F606F091F706EC
:10537000E217F307A0F42E1B3F0B2817390778F02C
:10538000AC014E5F5F4F2417350748F04E0F5F1F8B
:105390005093F7064093F6068193919302C0E0E0A4
:1053A000F0E0CF01DF91CF911F910F910895CF933E
:1053B000DF93009709F481C0FC01329713821282B7
:1053C000A091F806B091F906109781F420813181FF
:1053D000820F931F2091F6063091F70628173907A0
:1053E00051F5F093F706E093F60667C0ED0120E073
:1053F00030E0CE17DF0740F44A815B819E01411502
:105400005105F1F0EA01F5CFD383C2834081518188
:10541000840F951FC817D90759F488819981840F83
:10542000951F0296918380838A819B8193838283D7
:105430002115310529F4F093F906E093F8063DC0F3
:10544000E901FB83EA8349915991C40FD51FEC17F9
:10545000FD0761F480819181840F951F0296E90117
:1054600099838883828193819B838A83E0E0F0E043
:1054700012968D919C911397009719F0FD01DC0114
:10548000F7CF8D919C9111979D012E5F3F4F820F19
:10549000931F2091F6063091F7062817390769F413
:1054A000309729F41092F9061092F80602C0138280
:1054B0001282B093F706A093F606DF91CF9108957C
:1054C000A0E0B0E0E6E6FAE20C94BA2BEC0100971B
:1054D00021F4CB010E943F29B4C0FC01E60FF71F65
:1054E0009C0122503109E217F30708F4A8C0D90142
:1054F0000D911C91119706171707B0F00530110593
:1055000008F49BC0C80104978617970708F495C054
:1055100002501109061B170B019311936D937C9395
:10552000CF010E94D72989C05B01A01AB10A4C01A2
:10553000800E911EA091F806B091F906612C712C95
:10554000E12CF12C109709F446C08D919C91119794
:10555000A815B905B1F56C0142E0C40ED11CCA14FE
:10556000DB0478F14C018A189B08640142E0C40E08
:10557000D11C1296BC9012971396AC91B5E0CB1645
:10558000D10440F0B282A38391828082D9016D93CD
:105590007C9309C00E5F1F4F800F911FF90191830B
:1055A0008083EB2DFA2FE114F10431F0D70113962B
:1055B000FC93EE93129741C0F093F906E093F8063E
:1055C0003CC06816790608F43C017D0112960D90E6
:1055D000BC91A02DB7CF8091F6069091F706881662
:1055E0009906E1F466167706C8F48091000190915F
:1055F0000101009741F48DB79EB74091040150918D
:105600000501841B950BE817F907C8F4F093F7061A
:10561000E093F606F901718360830FC0CB010E940D
:105620003F297C01009759F0A801BE010E94262B5A
:10563000CE010E94D729C70104C0CE0102C080E07C
:1056400090E0CDB7DEB7EEE00C94D62BFB01DC0189
:1056500002C001900D9241505040D8F70895FB01CF
:10566000DC0101900D920020E1F70895FB01DC01BF
:105670004150504048F001900D920020C9F701C000
:105680001D9241505040E0F70895FC0181E090E008
:105690000190061609F4CF010020D1F70197089573
:1056A000FB0151915523A9F0BF01DC014D91451734
:1056B0004111E1F759F4CD010190002049F04D91DD
:1056C00040154111C9F3FB014111EFCF81E090E09A
:1056D000019708952532310520F4223010F00C9402
:1056E000752BFA011082CA010895BB272A3051F4A4
:1056F000992342F4BDE290958095709561957F4F16
:105700008F4F9F4F0C94852BBB27FA01A62F621752
:10571000710581059105330B30FB66F0AA27660FF2
:10572000771F881F991FAA1FA21710F0A21B63954D
:105730003850A9F7A05DAA3308F0A95DA19336F708
:10574000B111B1931082CA010C94A62BDC01FC01AB
:10575000672F71917723E1F7329704C07C916D93A5
:1057600070836291AE17BF07C8F308952F923F92DE
:105770004F925F926F927F928F929F92AF92BF9261
:10578000CF92DF92EF92FF920F931F93CF93DF930D
:10579000CDB7DEB7CA1BDB0B0FB6F894DEBF0FBE6A
:1057A000CDBF09942A88398848885F846E847D84B7
:1057B0008C849B84AA84B984C884DF80EE80FD80B9
:1057C0000C811B81AA81B981CE0FD11D0FB6F8942F
:0E57D000DEBF0FBECDBFED010895F894FFCFF0
:1057DE000000FA06800021FF1300FFFFFFFF00E12B
:1057EE00000000000000FF00C18081000000014D9C
:1057FE00617820736572766F73206174746163686B
:10580E00656400556E6B6E6F776E2070696E206DDD
:10581E006F6465002F55736572732F746573742FE3
:10582E0044726F70626F782F41726475696E6F2F5C
:10583E004669726D617461506C7573333275342FB5
:10584E004669726D617461506C7573333275342EA6
:10585E00696E6F004932433A20546F6F206D616E4E
:10586E007920627974657320726563656976656403
:10587E00004932433A20546F6F2066657720627973
:10588E007465732072656365697665640031302DC9
:10589E006269742061646472657373696E67206EE9
:1058AE006F7420737570706F7274656400746F6FAF
:1058BE00206D616E7920717565726965730050494E
:1058CE004E475F434F4E464947204572726F723ABC
:1058DE00204578636565646564206E756D626572DA
:1058EE00206F6620737570706F72746564207069B6
:1058FE006E67206465766963657300535445505036
:10590E00455220434F4E464947204572726F723AB8
:10591E002057726F6E67204E756D626572206F66CE
:10592E0020617267756D656E7473006172676320B6
:10593E003D200053544550504552204F5045524142
:10594E005445204572726F723A204D4F544F52207B
:10595E004E4F5420434F4E464947555245440053EF
:10596E00544550504552204649524D5741524520BC
:10597E0056455253494F4E204572726F723A204E21
:10598E004F204D4F544F525320434F4E464947558B
:10599E00524544005354455050455220434F4E46B5
:1059AE004947204572726F723A20554E4B4E4F57F3
:1059BE004E205354455050455220434F4D4D414E6D
:1059CE004400780000000000E30FB60F510F7F0F68
:1059DE00540F5C0F700F2E63707000000000005E9D
:1059EE0019AA1985198A198D199D197419000000A3
:1059FE0000E41A411CA61A301B781A921A841A0057
:00000001FF
